:020000040800F2
:100000005828002055020008B1140008B314000855
:10001000B7140008BB140008BF140008000000005B
:10002000000000000000000000000000690100085E
:10003000C314000800000000F1010008410200089C
:100040006F0200086F0200086F0200086F020008CC
:100050006F0200086F020008C51400086F02000854
:100060006F0200086F0200086F020008E714000822
:100070006F0200086F0200086F0200086F0200089C
:100080006F0200086F0200086F020008734A000840
:10009000BF4A00086F0200086F0200086F020008E4
:1000A0006F0200086F0200086F0200086F0200086C
:1000B0006F0200086F0200086F0200086F0200085C
:1000C0006F0200086F0200086F0200086F0200084C
:1000D0006F0200086F0200086F0200086F0200083C
:1000E0006F0200086F0200086F020008DFF80CD0F2
:1000F00004F05EFE0048004763090008582800200D
:1001000080F309887047EFF309807047684680F3F1
:10011000098804480078C00714BF0220032080F338
:1001200014887047445B0008DFF818C0EFF30583BC
:100130001B0618BF6047EFF31483DB0708BF604757
:1001400000DF7047634F0008DFF818C0EFF3058346
:100150001B0618BF6047EFF31483DB0708BF604737
:1001600000DF7047C1510008EFF30980816911F881
:10017000021C39BB90E80F10E047EFF3098C194BD4
:1001800093E80600914218D059B10CB44FF0010326
:1001900081F821302CE9F00FC1F824C005F012FBE2
:1001A0000CBC1A60D2F824C0BCE8F00F92F82130E1
:1001B0008CF309881BB192F82000CCF800006FF096
:1001C000020E704710B5084A1268914209D8074CD0
:1001D00054F8214090E80F10A047EFF3098C8CE809
:1001E0000F0010BD6C000020D44D0008D44D000855
:1001F00005F0A0F9114B93E8060091421BD00CB416
:100200004FF0000381F82130EFF3098C2CE9F00F57
:10021000C1F824C005F0D6FA0CBC1A60D2F824C08C
:10022000BCE8F00F8CF3098892F821301BB192F8EA
:100230002030CCF800306FF0020E70476C000020C8
:1002400005F092FBD6E7000004F08AFE05F08CFB77
:10025000D0E700000648804706480047FEE7FEE773
:10026000FEE7FEE7FEE7FEE7FEE7FEE7FEE7FEE766
:10027000B1130008ED00000800BFFEE7012802D01E
:10028000022802D100E001E000E000BF00BF70479B
:1002900000BFFEE71FB5F94B0FCB8DE80F0010E054
:1002A00001224FF6FF712020DFF8D4C300DF04469F
:1002B000012C06D04FF6FF726946F248DFF8C8C33A
:1002C00000DFEDE79EB0ED4A303AD2E90013D2E903
:1002D0000202CDE90813CDE90A02E84B203BD3E93D
:1002E0000020D3E90213CDE90613CDE90420E34B46
:1002F000103BD3E90012D3E90203CDE90203CDE9B3
:10030000001285E001224FF6FF710820DFF870C36C
:1003100000DF8046B8F1010F7AD01420DFF86CC3FB
:1003200000DF002421E000F06CFE01224FF6FF7197
:100330001020DFF84CC300DF8046B8F1010F01D177
:10034000641E11E0002509E0D14830F815000C21A9
:1003500001FB04510CAA22F811006D1C0C2DF3DBDB
:100360000A20DFF828C300DF641C032CDBDB002637
:1003700000241FE00CA830F8141004F10C000CAAA3
:1003800032F81000014404F1180032F8100008445B
:10039000032190FBF1F01FFA80F9B9F57A7F04DAB6
:1003A0004FF6FF7000EA460603E0012000EB46002E
:1003B00086B2641C0C2CDDDBB648008880EA060798
:1003C000B548007827EA0017B44800780002B3491E
:1003D000097840EA0110B149097808430740BFB1E4
:1003E0000020AF4908704FF6FF7208A9A548DFF852
:1003F00098C200DF4FF6FF7204A9A248DFF888C256
:1004000000DF4FF6FF7269469E48DFF87CC200DFCE
:1004100078E701241420DFF88CC200DF13E0DFF856
:1004200088C200DF9E48007840B9C4F10100C4B220
:10043000224604219D4802F0F8FD04E00122042137
:100440009A4802F0F2FDEAE701249620DFF854C250
:1004500000DF13E0DFF850C200DF9148007840B1C0
:10046000C4F10100C4B222460221904802F0DDFD31
:1004700004E0012202218D4802F0D7FDEAE710B521
:100480008B48027808218B4802F0CFFD884802791A
:100490001021884802F0C9FD8548027A202185484C
:1004A00002F0C3FD824842784021824802F0BDFD3F
:1004B0007F48427980217F4802F0B7FD7C48427A2C
:1004C0004FF480717B4802F0B0FD794882784FF498
:1004D0000071784802F0A9FD754882794FF4806177
:1004E000744802F0A2FD7248827A4FF400617148AC
:1004F00002F09BFD6E48C2784FF480516D4802F0C7
:1005000094FD6B48C2794FF400516A4802F08DFDAA
:100510006748C27A4FF48041664802F086FD10BDFC
:1005200010B50020002100225A4B1A80624A12782E
:10053000012A31D100BF2DE0604A125C02F00104B3
:100540000A464B1CD9B25A4B9C545C4A125CC2F30B
:1005500040040A464B1CD9B2554B9C54574A125C76
:10056000C2F380040A464B1CD9B2514B9C54534AE7
:10057000125CC2F3C0040A464B1CD9B24C4B9C54CB
:10058000444A13884D4A125C63F31F12414B1A8090
:10059000421CD0B20328CFDB474A1278022A31D15D
:1005A00000202DE0454A125CC2F300140A464B1CA1
:1005B000D9B23F4B9C54414A125CC2F340140A46E4
:1005C0004B1CD9B23A4B9C543C4A125CC2F3801487
:1005D0000A464B1CD9B2364B9C54384A125CD4099B
:1005E0000A464B1CD9B2324B9C542A4A128812013B
:1005F000324B1B5C42EA2312264B1A80421CD0B2BB
:100600000328CFDB2C4A1278032A31D100202DE0B9
:100610002B4A125C02F001040A464B1CD9B2244B4F
:100620009C54274A125CC2F340040A464B1CD9B2C0
:100630001F4B9C54224A125CC2F380040A464B1C96
:10064000D9B21B4B9C541E4A125CC2F3C0040A462A
:100650004B1CD9B2164B9C540E4A1388184A125C94
:1006600063F31F120B4B1A80421CD0B20328CFDB5E
:10067000114A1278042A55D1002051E08C5B000801
:10068000855100082C1C0020DD530008B5500008DF
:100690008C1C0020340000200F0000200E000020E1
:1006A00011000020B5520008CD520008001401408E
:1006B000201C0020000C0140100000200800002039
:1006C0000B000020AE4A125CC2F300140A464B1C19
:1006D000D9B2AC4B9C54AA4A125CC2F340140A46ED
:1006E0004B1CD9B2A74B9C54A54A125CC2F3801490
:1006F0000A464B1CD9B2A34B9C54A14A125CD409A4
:100700000A464B1CD9B29F4B9C549F4A1288120137
:100710009B4B1B5C42EA23129B4B1A80421CD0B2BB
:100720000328CFDB10BD19E001224FF6FF7107202F
:10073000DFF858C200DF0446012C0FD0FFF7F0FEAF
:10074000FFF79DFE924801680820DFF848C200DFED
:10075000914801682020DFF83CC200DFE4E71FB5C4
:1007600000BFFF226946012004F0E8FA0028F8D112
:100770009DF80400C22807D19DF80600B12803D1D6
:100780009DF807000028ECD09DF80400C128E8D1AE
:100790009DF80600B128E4D19DF807000028E0D1BB
:1007A0009DF80500012804D002281AD0042858D149
:1007B0002FE0002406E001A8611D405C7749085540
:1007C000601CC4B2032CF6DB754801680220DFF818
:1007D000D4C100DF724801680120DFF8B8C100DF32
:1007E0003FE0002406E001A8611D405C6449085513
:1007F000601CC4B2032CF6DB694801680420DFF8F2
:10080000A4C100DF664801680220DFF888C100DF6C
:1008100027E09DF808109DF8090041EA0020624990
:100820000978491E8900084100F00F005F490870EF
:100830009DF80A109DF80B0041EA00205A490978FA
:10084000491E8900084100F00F00594908705948B5
:10085000007828B1524801680420DFF838C100DF71
:1008600000BF7EE708B55449012004F065F9002374
:1008700021220221012004F06BFA012004F098F9F2
:100880000CE04FF6FF7269464C48DFF834C100DFD8
:100890004FF470620120009904F0EFF9F1E700F0E5
:1008A000FBFC60214548DFF81CC100DF002247F651
:1008B000F871454802F0B9FB012241F24821424853
:1008C00002F0B3FB01220621404802F0AEFB0023F8
:1008D0001A460321AFF27300DFF8F4C000DF3D4990
:1008E000086000231A460421AFF28D10DFF8E0C043
:1008F00000DF3949086000231A460221AFF2D910FF
:10090000DFF8CCC000DF2649086000231A46022128
:10091000AFF2CB40DFF8B8C000DF304908600023F9
:100920001A460221AFF21550DFF8A4C000DF2C49AF
:10093000086000231A460221AFF27760DFF890C00A
:1009400000DF1349086000231A460221AFF2BB60A2
:10095000DFF87CC000DF104908600020DFF884C0A9
:1009600000DF10B5FFF7D2FB00221146AFF2D10035
:10097000DFF874C000DF002010BD00BFFEE70000FC
:100980000B000020201C00203400002085510008AE
:100990002800002025510008300000200800002019
:1009A0001C000020BD500008100000200E00002098
:1009B0000F0000201100002020A107002C1C0020A7
:1009C0007D54000801530008000C01400014014050
:1009D000E559000814000020180000202000002025
:1009E00024000020795A00081158000810B502F0C0
:1009F0003FFC4FF4803002F05BFC00BF02F097FC3C
:100A00000028FBD0102001F037FF022001F020FF6A
:100A1000002002F0D2FC002002F0E1FC4FF48060E4
:100A200002F0D4FC4FF4E0114FF4803002F0A8FC47
:100A3000012002F0B1FC00BF392002F05CFC00286C
:100A4000FAD0022002F0ABFC00BF02F0B1FC082893
:100A5000FBD10121084602F075FD10BD08B500214B
:100A60004FF0006000F08AFD4FF4C06000F04EFDD2
:100A700014208DF8000000208DF8010002208DF870
:100A8000020001208DF80300684600F044FD1920A3
:100A90008DF8000000208DF8010002208DF8020082
:100AA00001208DF80300684600F035FD1C208DF80C
:100AB000000000208DF8010002208DF802000120C6
:100AC0008DF80300684600F026FD1D208DF800001B
:100AD00000208DF8010001208DF802008DF8030040
:100AE000684600F018FD1E208DF8000000208DF8EB
:100AF000010002208DF8020001208DF803006846F5
:100B000000F009FD06208DF8000001208DF803009B
:100B100000208DF8010002208DF80200684600F0E8
:100B2000FAFC08BD08B501217C2002F00BFD4FF452
:100B30000060ADF8000003208DF8020048208DF819
:100B400003006946FE4802F0C1F94FF48050ADF849
:100B5000000003208DF8020018208DF8030069467C
:100B6000F74802F0B3F901214FF4EA1002F07DFAE0
:100B7000FF20ADF8000003208DF8020004208DF85E
:100B800003006946EE4802F0A1F90320ADF8000029
:100B90008DF8020004208DF803006946E94802F050
:100BA00095F90320ADF800008DF8020004208DF8BF
:100BB00003006946E44802F089F90121E34802F0A4
:100BC00054FA47F6F870ADF8000003208DF80200E3
:100BD00010208DF803006946DA4802F077F94FF4E7
:100BE0008070ADF8000003208DF8020004208DF81D
:100BF00003006946D64802F069F94FF47E40ADF82B
:100C0000000003208DF8020004208DF803006946DF
:100C1000CF4802F05BF90E20ADF8000003208DF8FC
:100C2000020010208DF803006946C94802F04EF911
:100C30004FF6F070ADF8000003208DF8020004209C
:100C40008DF803006946C34802F040F908BD00B5BD
:100C500087B00121480602F082FCBF4800F04EFF39
:100C600004A801F06FF800208DF8160001208DF81F
:100C700017008DF8180000208DF8190001208DF85C
:100C80001A008DF81B0000208DF812008DF813005B
:100C900008208DF8140007208DF815001420ADF8F9
:100CA000100004A9AC4800F042FF00208DF80A00B3
:100CB0008DF80B008DF80C00ADF80800ADF80000C1
:100CC0004FF6FF70ADF804004FF6E070ADF8060087
:100CD0000020ADF8020001208DF80D000122022154
:100CE0009D4801F0ACFA002201219B4801F0A7FACF
:100CF00007B000BD08B50121142002F023FC43F623
:100D0000F070ADF8000003208DF8020010208DF87F
:100D1000030069468C4802F0D9F83020ADF8000095
:100D200003208DF8020010208DF8030069468448E6
:100D300002F0CCF808BD08B50121082002F002FC41
:100D40000121042002F0FEFB47F6E070ADF8000040
:100D500003208DF8020004208DF8030069467948CD
:100D600002F0B4F80C20ADF8000003208DF802006A
:100D700004208DF803006946714802F0A7F808BD09
:100D800008B50121042002F0DDFB4FF45070ADF8EE
:100D9000000003208DF8020004208DF8030069464E
:100DA000674802F093F808BD00B58BB001210846F2
:100DB00002F0BBFB694801F095FB0020089002900F
:100DC0003C2003906648009080150690654801908D
:100DD0004FF48060079000200490802005904FF42D
:100DE0004050099000200A9069465C4801F01CFCC4
:100DF00001220221594801F04EFC0121574801F01F
:100E00003EFC0BB000BD08B50121192002F09AFB91
:100E10000320ADF800008DF8020000208DF80300DB
:100E20006946484802F052F80520ADF8000003205A
:100E30008DF8020000208DF803006946424802F058
:100E400045F808BD00B587B00121084602F06DFBEA
:100E50000121480202F076FB4FF4804002F0D9FAFB
:100E6000FFF7D1FF3D4801F03DFB3D483E4908609A
:100E70003E484860002088600C20C860002008615F
:100E800080204861400088618000C86100200862BD
:100E90004FF40050486200208862304801F0C4FBE3
:100EA000012202212D4801F0F6FB002002900120D2
:100EB0008DF80C0000208DF80D004FF46020049098
:100EC000002005900C208DF8180002A924484C3809
:100ED00000F0B1FB05230122092121484C3800F024
:100EE00042FC0523022206211D484C3800F03BFC41
:100EF0000523032211461A484C3800F034FC052320
:100F00000422002116484C3800F02DFC05231A4617
:100F10000A2113484C3800F026FC0523062207213D
:100F20000F484C3800F01FFC0523072204210C4811
:100F30004C3800F018FC052308220121084817E06E
:100F400000080140000C0140001001400002300088
:100F500000140140001801400064004008000240F5
:100F60004C240140A41C0020301D00208C1C0020BB
:100F70004C3800F0F8FB052309220B21CE4800F085
:100F8000F2FB05230A220821CB4800F0ECFB0523E5
:100F90000B221946C84800F0E6FB05230C2202216B
:100FA000C54800F0E0FB0121C34800F07BFB0121B4
:100FB000C14800F06CFBC04800F08BFB00BFBE488E
:100FC00000F08CFB0028FAD1BB4800F091FB00BF79
:100FD000B94800F092FB0028FAD14FF4C06000F04D
:100FE00095FA0B208DF8040000208DF805000120F3
:100FF0008DF806008DF8070001A800F08CFA07B004
:1010000000BD10B5AD4801F06DFAAD49AB4801F037
:101010000BFB01220221A94801F03DFB0121A74859
:1010200001F02DFB0121A44800F031FB10BD00B5FB
:1010300085B0A14800F0D8FA0020009003908DF808
:1010400005004FF46020029006208DF8100001206A
:101050008DF804006946984800F0EDFA0523012256
:101060000A21954800F07FFB052302220C219248BB
:1010700000F079FB0523032208218F4800F073FB61
:101080000523042209218C4800F06DFB01218A48C8
:1010900000F0FDFA884800F01CFB00BF864800F015
:1010A0001DFB0028FAD1844800F022FB00BF8248D3
:1010B00000F023FB0028FAD101217F4800F0F2FA6A
:1010C00005B000BD0EB54FF0804002F0A3FA01213B
:1010D000084602F044FA46F2A710ADF8040040F2C8
:1010E0009F50ADF800000020ADF80600ADF80200FA
:1010F00069464FF0804002F061FB0121880703F050
:101100007FF900214FF0804002F0B4FF0122114628
:10111000900702F0CAFE00214FF0804002F0AAFEC4
:10112000684802F077FA0121022002F018FA40F232
:10113000E730ADF804004720ADF800000020ADF81E
:101140000600ADF8020069465E4802F037FB012157
:101150005C4803F055F900215A4802F08BFF012248
:101160001146584802F0A1FE0021564802F082FEC6
:10117000554802F04FFA0121042002F0F0F940F244
:10118000DB50ADF8040041F61F40ADF80000002030
:10119000ADF80600ADF8020069464B4802F00EFBC0
:1011A0000121494803F02CF90021474802F062FF71
:1011B00001221146444802F078FE0021424802F024
:1011C00059FE424802F026FA0121082002F0C7F930
:1011D00040F2CF70ADF8040041F61F40ADF80000BA
:1011E0000020ADF80600ADF802006946374802F06D
:1011F000E5FA0121354803F003F90021334802F0F4
:1012000039FF01221146314802F04FFE00212F48DC
:1012100002F030FE0EBD10B545F2555001F0A2FFB0
:10122000062001F0A2FF9C2001F0A2FF01F0A3FF25
:1012300001F0A6FF10BD0EB50121402002F082F999
:101240000120ADF8080003208DF80A0004208DF875
:101250000B0002A91E4801F039FE0021042001F014
:1012600049FF0120009000208DF804000C208DF82B
:10127000050001208DF80600684601F069FA0EBDF0
:1012800010B501214FF0C05002F069F9012001F0C2
:1012900094FF00F018FC10BD10B5FFF7A7FBFFF797
:1012A00011FFFFF73FFCFFF7D2FCFFF7C4FFFFF78A
:1012B000C9FDFFF7D3FB10BD002401400800024028
:1012C000301D00200004004000080040000C0040D9
:1012D000001801400CB50020019000906B48006898
:1012E00040F480306949086000BF6848006800F435
:1012F000003000900198401C0190009818B90198A6
:10130000B0F5A06FF1D16148006810F4003F02D041
:101310000120009001E0002000900098012842D1B7
:101320005B48006840F010005949086008460068B2
:1013300020F0030008600846006840F002000860E2
:10134000524840685149486008464068486008462D
:10135000406840F4806048600846406820F47C1093
:1013600048600846406840F4E81048600846006855
:1013700040F08070086000BF4448006810F0007FB3
:10138000FAD04248406820F00300404948600846CF
:10139000406840F00200486000BF3C48406800F0F0
:1013A0000C000828F9D10CBD10B5FFF793FF10BD54
:1013B00010B53648006840F001003449086008461E
:1013C000406834490840314948600846006832495D
:1013D00008402E4908600846006820F48020086014
:1013E0000846406820F4FE0048604FF41F00886003
:1013F000FFF7DAFF4FF000602849086010BD10B514
:10140000002100200022214B5B6803F00C0121B178
:10141000042906D0082928D107E0214B214C23605C
:1014200027E01F4B1F4C236023E0184B5B6803F43D
:101430007010164B5B6803F48032022303EB90407C
:1014400022B9194B4343174C23600DE00F4B5B68E7
:1014500013F4003F04D0144B4343124C236003E0C9
:101460000F4B43430F4C236003E00D4B0D4C2360A7
:1014700000BF00BF054B5B68C3F303130B4CE15C7B
:10148000084B1B68CB40074C236010BD0010024086
:10149000002002400000FFF8FFFFF6FE08ED00E02C
:1014A00000127A003800002000093D003C000020B6
:1014B000704700BFFEE700BFFEE700BFFEE700BFCA
:1014C000FEE7704710B5012001F0A8F938B10120FE
:1014D00001F0B5F90B480068401C0A490860062075
:1014E00001F0ADF910BD10B5022001F001F938B1DD
:1014F000012001F010F904480168102003F0CEFC2F
:1015000010BD0000040000202800002031490143E4
:10151000314A1160704770B5002100230F22C47852
:101520000CB32D4C246804F4E064C4F5E064210A93
:10153000C1F10403CA40447804FA03F184781440EA
:1015400021430901254C0678A155047804F01F05B4
:101550000124AC4005786D114FF0E02606EB8505BF
:10156000C5F8004109E0047804F01F050124AC40EF
:101570001B4D0678761145F8264070BD194A0A4081
:101580000243154B1B1F1A60704739B1124A121DD6
:1015900012680243104B1B1D1A6006E00E4A121D12
:1015A000126882430C4B1B1D1A607047042808D137
:1015B0004FF0E021096941F004014FF0E022116190
:1015C00007E04FF0E021096921F004014FF0E0222B
:1015D000116170470000FA050CED00E000E400E046
:1015E00080E100E080FFFF1F10B50446FA48844206
:1015F00008D10121401501F0BFFF0021601501F065
:10160000BBFF17E0F548844208D10121001501F025
:10161000B3FF0021201501F0AFFF0BE0F04884423A
:1016200008D10121C80301F0A7FF00214FF40040B9
:1016300001F0A2FF10BD30B5024600200023506823
:10164000E84C20400D790C6844EA052420435060A2
:101650009068E54C2040D1E902542C434D7944EA8E
:10166000450420439060D06A20F470000C7C641E16
:10167000E4B2234340EA0350D06230BD0021016050
:10168000017141718160C16001210174704721B114
:10169000826842F00102826003E0826822F0010267
:1016A0008260704721B1826842F48072826003E0F8
:1016B000826822F480728260704710B50023CBB23A
:1016C0001AB144681C43446002E044689C4344608F
:1016D00010BD816841F0080181607047014600201B
:1016E0008A6812F0080F01D0012000E00020704746
:1016F000816841F0040181607047014600208A68DA
:1017000012F0040F01D0012000E00020704721B149
:10171000826842F4A002826003E0826822F4A002A0
:1017200082607047014600208A6812F4800F01D061
:10173000012000E00020704710B50A460021002378
:10174000416821F46041531E41EA4331416010BDBC
:1017500021B1426842F40062426003E0426822F430
:10176000006242607047F0B504460D46002000213B
:10177000092D11DDE068A5F10A0606EB46070726EC
:1017800006FA07F18843A5F10A0606EB460603FAB6
:1017900006F10843E0600CE0206905EB45070726E9
:1017A00006FA07F1884305EB450603FA06F10843FC
:1017B0002061072A0FDA606B561E06EB86071F268C
:1017C00006FA07F18843561E06EB860605FA06F16F
:1017D0000843606322E00D2A0FDA206BD61F06EB68
:1017E00086071F2606FA07F18843D61F06EB8606F2
:1017F00005FA06F10843206310E0E06AA2F10D0645
:1018000006EB86071F2606FA07F18843A2F10D06AC
:1018100006EB860605FA06F10843E062F0BD21B149
:10182000826842F48012826003E0826822F48012AF
:10183000826070470146C86C80B2704766484C3081
:101840000068704721B1426842F48062426003E060
:10185000426822F480624260704721B1426842F4DB
:101860008052426003E0426822F480524260704736
:101870000A460021816821F4E041114381607047EC
:1018800021B1826842F40042826003E0826822F45F
:1018900000428260704721B1826842F40212826085
:1018A00003E0826822F40212826070470146002041
:1018B0008A6812F4001F01D0012000E00020704768
:1018C000F0B504461546002000220026092911DD46
:1018D000E068A1F10A0707EB470C072707FA0CF2AB
:1018E0009043A1F10A0707EB470703FA07F21043F9
:1018F000E0600CE0206901EB410C072707FA0CF2CD
:10190000904301EB410703FA07F210432061A06BFB
:10191000C0F30156EF1C06F1010CA7EB0C0707EB17
:10192000870C1F2707FA0CF29043EF1C06F1010CFD
:10193000A7EB0C0707EB870701FA07F21043A06338
:10194000F0BD10B50A4600210023816B21F440113F
:10195000531E41EA0351816310BD08B50023009373
:101960000090009B0B440093009B1A6008BD08B5D3
:10197000024600200090009201F12800009B1844CC
:1019800000900098006880B208BD0A4600214168B6
:10199000164B1940114341607047416282627047A3
:1019A0000A460021416821F01F0111434160704740
:1019B00040B109490831096841F40001064A08327A
:1019C000116007E004490831096821F40001024A66
:1019D00008321160704700000024014000280140D7
:1019E000003C0140FFFEF0FFFDF7F1FFFFFD3FFF70
:1019F0000246002013680B4201D0012000E00020C5
:101A00007047CA430260704770B502460020002349
:101A100000240B125568CEB205EA060415681D4273
:101A200002D00CB1012000E0002070BD00220A129B
:101A3000D34303607047000010B5012001F0B6FDEC
:101A4000002001F0B3FD10BD2A4908607047294904
:101A5000091F0860704727498431086070470146B4
:101A60000020254A10884FF67F4210400843224A42
:101A700010807047014600201F4A10884FF6807280
:101A8000104008431C4A1080704708B5002200929D
:101A9000194A2C3A0092009A02440092009A11606E
:101AA00008BD08B501460020009013482C3800906E
:101AB0000098084400900098008808BD0D489C30AC
:101AC0000068C0B270470C480830008840F0010040
:101AD00009490831088070470648A0300068C0B244
:101AE000704705480830008840F00200024908317C
:101AF0000880704704860D422C6C004010B50446E7
:101B0000FE48844209D10121480601F042FD00212E
:101B10004FF0007001F03DFD08E00121880601F062
:101B200038FD00214FF0806001F033FD10BD30B56D
:101B3000024600200023146824F002041460146894
:101B400044F00104146000E05B1C546814F0010FC1
:101B500003D1A3F57F44FF3CF6D1546814F0010F84
:101B600001D100206CE08C79012C04D1146844F080
:101B70008004146003E0146824F080041460CC79BD
:101B8000012C04D1146844F04004146003E014688C
:101B900024F0400414600C7A012C04D1146844F041
:101BA0002004146003E0146824F0200414604C7ACC
:101BB000012C04D1146844F01004146003E014688C
:101BC00024F0100414608C7A012C04D1146844F0C1
:101BD0000804146003E0146824F008041460CC7A4C
:101BE000012C04D1146844F00404146003E0146868
:101BF00024F0040414608C78A407CD7844EA0564CA
:101C00000D7944EA05444D7944EA05540D886D1E6A
:101C10002C43D461146824F001041460002300E014
:101C20005B1C546814F0010F03D0A3F57F44FF3C04
:101C3000F6D1546814F0010F01D0002000E001201B
:101C400030BD10B50021837A012202FA03F1AC4ABB
:101C5000126842F00102AA4B1A60A94A1C321268AB
:101C60008A43A74B1C331A60027BCAB9A44A0C32C0
:101C700012688A43A24B0C331A604288C38842EA36
:101C800003439F4A4032847A42F834300288838882
:101C900042EA03439A4A4032847A02EBC402536018
:101CA000027B012A19D1964A0C3212680A43944BDE
:101CB0000C331A604288038842EA0343904A403258
:101CC000847A42F83430C288838842EA03438C4ADB
:101CD0004032847A02EBC4025360C27A3AB9884A2D
:101CE000121D12688A43864B1B1D1A6006E0844A47
:101CF000121D12680A43824B1B1D1A60028932B9F9
:101D00007F4A143212688A437D4B14331A60028969
:101D1000012A06D17A4A143212680A43784B1433E6
:101D20001A60427B012A06D1754A1C3212680A43A6
:101D3000734B1C331A60724A126822F00102704B16
:101D40001A6010BD00218171C171017241728172EE
:101D5000C1728170C17003210171022141710121A1
:101D6000018070476649096841F00101644A1160C9
:101D70001146096843F60E729143614A116011469B
:101D8000096841EA002111601146096821F001014A
:101D90001160704721B1026842F48032026003E0B2
:101DA000026822F4803202607047E1B1026842F0BA
:101DB000800202604FF4C272125842F480734FF4F2
:101DC000C27213504FF4CA72125842F480734FF427
:101DD000CA7213504FF4D272125842F480734FF407
:101DE000D27213501BE0026822F0800202604FF4AE
:101DF000C272125822F480734FF4C27213504FF41F
:101E0000CA72125822F480734FF4CA7213504FF4FE
:101E1000D272125822F480734FF4D272135070476A
:101E200010B502460020936803F08063B3F1806F21
:101E300000D110E0936803F00063B3F1006F01D1AB
:101E4000012008E0936803F08053B3F1805F01D173
:101E5000022000E00420042879D002F5C07303EBCF
:101E600000131B6803F0010402F5C07303EB0013B9
:101E70001C600B7A7BB94B7A0C8843EA445302F519
:101E8000C07404EB00142468234302F5C07404EB0F
:101E90000014236010E00B7A4C6843EAC4034C7AC8
:101EA000234302F5C07404EB00142468234302F5B5
:101EB000C07404EB001423608B7A03F00F038B7261
:101EC00002F5C07303EB00135B6823F00F0402F507
:101ED000C07303EB00135C6002F5C07303EB0013E7
:101EE0005B688C7A234302F5C07404EB00146360D2
:101EF0008B7B1C064B7B44EA034403E000640040F8
:101F0000006600400B7B44EA0323CC7A234302F5AE
:101F1000C07404EB0014A3608B7C1C064B7C44EA69
:101F200003440B7C44EA0323CC7B234302F5C074B7
:101F300004EB0014E36002F5C07303EB00131B68AD
:101F400043F0010402F5C07303EB00131C6010BDE5
:101F500010B50246002021B1012907D002290FD176
:101F600009E09368F74C03EA04000BE09368F64C31
:101F700003EA040006E09368F44C03EA040001E07D
:101F8000002000BF00BFF24C031BA04216D007DCAC
:101F900080B16FF08063C3180ED0022B18D111E00E
:101FA000B3F5007F10D0EB4C1B1909D0B3F5003FFF
:101FB0000ED10BE002200DE000200BE0002009E034
:101FC000002007E0012005E0012003E0012001E0FE
:101FD000002000BF00BF10BD21B1012907D0022998
:101FE0000FD109E0826842F0800282600AE08268D4
:101FF00042F40042826005E0826842F4000282609E
:1020000000E000BF00BF704710B500F5D87303EBC8
:1020100001131B6803F004031372137A53B900F51C
:10202000D87303EB01131B6840F2FF7404EA5353A7
:10203000136009E000F5D87303EB01131B686FF020
:10204000604404EAD303536000F5D87303EB011333
:102050001B6803F00203537200F5D87303EB0113FE
:102060005B6803F00F03937200F5D87303EB011361
:102070005B681B0AD37400F5D87303EB01139B68EC
:10208000D37200F5D87303EB01139B681C0A147319
:1020900000F5D87303EB01139B681C0C547300F517
:1020A000D87303EB01139B681B0E937300F5D87371
:1020B00003EB0113DB68D37300F5D87303EB011353
:1020C000DB681C0A147400F5D87303EB0113DB689A
:1020D0001C0C547400F5D87303EB0113DB681B0E62
:1020E000937421B9C36843F02003C36003E003691C
:1020F00043F02003036110BD21B9C26842F0200201
:10210000C26003E0026942F02002026170470246A9
:10211000002019B9D36803F0030006E0012903D1B8
:10212000136903F0030000E00020704710B5024679
:102130000B4600204FF6FF71BBB9146824F002046F
:1021400044F00104146000E0491E546804F00304E4
:10215000012C01D00029F7D1546804F00304012CAC
:1021600001D0002032E0012030E0012B13D11468AF
:1021700024F00304146000E0491E546814F0030FB7
:1021800001D00029F8D1546814F0030F01D00020C9
:102190001CE001201AE0022B17D1146824F001047E
:1021A00044F00204146000E0491E546804F0030483
:1021B000022C01D00029F7D1546804F00304022C4A
:1021C00001D0002002E0012000E0002010BD014607
:1021D00000200A6822F0010242F002020A604A6806
:1021E00002F00302022A00D10120704701464FF697
:1021F000FF7200200B6823F002030B6000E0521E08
:102200004B6803F00203022B01D1002AF7D14B687F
:1022100003F00203022B00D001207047014600208A
:102220008A6902F070007047014600208A69100E2A
:102230007047014600208A69C2F3074070471AB10F
:1022400043690B43436102E043698B434361704739
:1022500010B50246002011F4700F08D09369C1F345
:102260001304234201D001202DE000202BE011F0C7
:10227000807F08D05368C1F31304234201D00120AA
:1022800021E000201FE011F0006F08D09368C1F337
:102290001304234201D0012015E0002013E011F0C7
:1022A000007F08D0D368C1F31304234201D001207A
:1022B00009E0002007E01369C1F31304234201D0B1
:1022C000012000E0002010BD0022234B994202D1E2
:1022D0000023836111E0C1F3130211F0007F01D0EC
:1022E000C2600AE011F0806F01D0026105E011F0D8
:1022F000006F01D0826000E042607047024600201B
:102300000A4201D0012000E00020704770B5044669
:102310000D4600266069284271D0B5F5807F68D0EF
:102320001CDC082D41D006DC012D2CD0022D30D034
:10233000042D7ED133E0102D3DD0202D41D0402DF5
:1023400077D144E0030000040003000800000310FC
:10235000000100080001FFF77000F030B5F5004FF4
:1023600061D009DCB5F5007F4AD0B5F5806F4DD05E
:10237000B5F5006F5DD150E0B5F5803F2DD0B5F5D6
:10238000003F56D12FE0A0685549FFF7B7FF06463A
:1023900051E0E0680321FFF7B1FF06464BE0E0683B
:1023A0000821FFF7ABFF064645E0E0681021FFF784
:1023B000A5FF06463FE020690321FFF79FFF064681
:1023C00039E020690821FFF799FF064633E02069CC
:1023D0001021FFF793FF06462DE060680821FFF704
:1023E0008DFF064627E060681021FFF787FF06464D
:1023F00021E0A0690121FFF781FF06461BE01BE0F9
:10240000A0690221FFF77AFF064614E0A0690421C3
:10241000FFF774FF06460EE00BE0A0697021FFF79E
:102420006DFF064607E060680421FFF767FF064678
:1024300001E0002600BF00E00026304670BDB1F587
:10244000007F3AD00FDC202928D006DC01291CD0DF
:1024500004291DD0082940D11DE0402921D0B1F523
:10246000807F3AD126E0B1F5004F31D006DCB1F5DE
:10247000806F25D0B1F5006F2FD124E0B1F5803FFA
:1024800012D0B1F5003F28D111E0154A826025E055
:102490000822C26022E01022C2601FE0082202610E
:1024A0001CE01022026119E00822426016E01022AE
:1024B000426013E00422426010E0042242600DE01A
:1024C000042242600AE0002282610422426005E0A8
:1024D000002282610422426000E000BF00BF70471A
:1024E0000101010001684FF6FE72114001600021F8
:1024F000016041608160C1608C49884208D18B498C
:102500000839496841F00F01884A083A51608AE069
:1025100086491431884208D184490839496841F014
:10252000F001824A083A51607DE0804928318842B2
:1025300008D17E490839496841F470617B4A083AFC
:10254000516070E079493C31884208D177490839B7
:10255000496841F47041754A083A516063E0734933
:102560005031884208D171490839496841F47021D5
:102570006E4A083A516056E06C496431884208D18D
:102580006A490839496841F47001684A083A51605B
:1025900049E066497831884208D164490839496878
:1025A00041F07061614A083A51603CE060498842FC
:1025B00006D1011F096841F00F01021F116032E0CE
:1025C0005B491431884208D15949091F096841F013
:1025D000F001574A121F116025E055492831884201
:1025E00008D15349091F096841F47061504A121F0C
:1025F000116018E04E493C31884208D14C49091F0E
:10260000096841F470414A4A121F11600BE04849C1
:102610005031884207D14649091F096841F47021A9
:10262000434A121F1160704710B50022026847F636
:10263000F0739A430C6A8B6823430C6923434C69FB
:1026400023438C692343CC6923434C6A23438C6A1C
:1026500023431A430260CB6843600B6883604B6876
:10266000C36010BD0021016041608160C1600161F3
:1026700041618161C161016241628162704721B142
:10268000026842F00102026004E002684FF6FE7345
:102690001A40026070471AB103680B43036002E0FE
:1026A00003688B4303607047416070470146486888
:1026B00080B2704701460020002211F0805F03D0F5
:1026C0001B4B083B1A6802E0184B083B1A680A4289
:1026D00001D0012000E00020704710F0805F03D09F
:1026E0001349091F086002E0104908394860704723
:1026F00001460020002211F0805F03D00C4B083B04
:102700001A6802E0094B083B1A680A4201D001200E
:1027100000E00020704710F0805F03D00449091FDB
:10272000086002E00149083948607047080002402B
:1027300008040240002044490860091D0860091D82
:102740000860091D086041483F491431086070471E
:1027500000213D498279002A3AD00A46126803686E
:102760009A430B461A600A1D126803689A430B1DB0
:102770001A60027911440A6803681A430A60324AEF
:102780000832126803689A432F4B08331A601A1DE7
:10279000126803689A432C4B0C331A604279102A52
:1027A0000ED11A1F126803681A43274B08331A60A8
:1027B0001A1D126803681A43234B0C331A600DE08C
:1027C0002149427911440A6803681A430A6005E006
:1027D000027911440A6803689A430A60704700212D
:1027E000016001710C21417100218171704716490E
:1027F000103109680143144A1032116070470146D4
:102800000020114A143212680A4201D0012000E06F
:10281000002070470C4914310860704701460020C1
:102820000022094B1B6803EA0102074B14331B68A3
:102830000B4202D00AB1012000E00020704702499B
:10284000143108607047000000040140FFFF0F00D2
:1028500001460020FE4A106800F03800084310606E
:102860007047FB49096821F00801F94A11601146D7
:102870000968014311607047F549096821F01001AA
:10288000F34A116011460968014311607047F1482D
:10289000EF494860F04848607047EE48EC494860AE
:1028A000ED4848607047EA48006940F08000E84918
:1028B00008617047E648006940F08000E44908611B
:1028C00070470420E249C96811F0010F01D00120CE
:1028D0000EE0DF49C96811F0040F01D0022007E0C3
:1028E000DB49C96811F0100F01D0032000E004207B
:1028F000704700B502460423FFF7E3FF034603E0F9
:10290000FFF7DFFF0346521E012B01D1002AF7D14A
:1029100002B90523184600BD30B5044604254FF41E
:102920003020FFF7E6FF0546042D17D1C84800699F
:1029300040F00200C649086108464461006940F061
:10294000400008614FF43020FFF7D3FF0546C04830
:10295000006941F6FD710840BD490861284630BD57
:1029600010B504244FF43020FFF7C3FF0446042CB5
:1029700016D1B748006940F00400B549086108461F
:10298000006940F0400008614FF43020FFF7B1FFCC
:102990000446AF48006941F6FB710840AC49086144
:1029A000204610BD00B502460423FFF78AFF034608
:1029B00003E0FFF786FF0346521E012B01D1002AD8
:1029C000F7D102B90523184600BD10B504244FF411
:1029D0003020FFF7E7FF0446042C16D19C4800691D
:1029E00040F004009A4908610846006940F0400040
:1029F00008614FF43020FFF7D5FF04469448006982
:102A000041F6FB71084092490861204610BD002044
:102A10008F49C96911F0020F01D0012000E00020A8
:102A2000704730B5A5250424FFF7F1FF00B100255C
:102A30004FF43020FFF75DFF0446042C3AD185485F
:102A400083498860844888600846006940F0200017
:102A500008610846006940F0400008614FF43020EA
:102A6000FFF747FF0446042C1BD17948006941F663
:102A7000DF710840764908610846006940F010009F
:102A8000086176480580E002FFF733FF0446052C15
:102A900010D06F48006941F6EF7108406C49086139
:102AA00008E0052C06D06A48006941F6EF7108403D
:102AB00067490861204630BD78B506460C460425B6
:102AC00000200090E802FFF714FF0546042D24D1F2
:102AD0005F48006940F001005D4908613480E80208
:102AE000FFF707FF0546042D10D1B01C0090200C05
:102AF00000990880E802FFF7FCFE0546544800698B
:102B000041F6FE7108405249086106E050480069EC
:102B100041F6FE7108404E490861284678BD70B5FF
:102B200004460D460426F002FFF7E3FE0646042E97
:102B300011D14748006940F00100454908612580EE
:102B4000F002FFF7D6FE06464148006941F6FE71E5
:102B500008403F490861304670BD70B505460E46D5
:102B60000424E002FFF7C5FE0446042C17D13948BF
:102B700037498860384888600846006940F010008E
:102B800008612E80E002FFF7B4FE0446052C06D053
:102B90002F48006941F6EF7108402D490861204631
:102BA00070BD2DE9F04304464FF6FF763746B04638
:102BB000B1460425E443E6B2C4F30727C4F307484B
:102BC0004FEA1469E802FFF794FE0546042D49D147
:102BD00020481F498860204888600846006940F006
:102BE00010000861FF2E06D01C4808300680E8025D
:102BF000FFF77FFE0546042D08D1FF2F06D01748AA
:102C00000A300780E802FFF774FE0546042D0AD15A
:102C1000B8F1FF0F07D011480C30A0F80080E8028F
:102C2000FFF767FE0546042D0AD1B9F1FF0F07D063
:102C30000A480E30A0F80090E802FFF75AFE054659
:102C4000052D0FD00248006941F6EF71084007E0FA
:102C50000020024023016745AB89EFCD00F8FF1F3C
:102C6000664908612846BDE8F08330B5054604246E
:102C70004FF43020FFF73DFE0446042C41D160485C
:102C80005E4988605F4888600846006940F020001F
:102C900008610846006940F0400008614FF43020A8
:102CA000FFF727FE0446042C22D15448006941F660
:102CB000DF710840514908610846006940F0100082
:102CC00008611DB100205049088002E0A5204E494E
:102CD00008804FF43020FFF70CFE0446052C10D07E
:102CE0004648006941F6EF7108404449086108E030
:102CF000052C06D04148006941F6DF7108403F4984
:102D00000861204630BDF0B505460E46174604243E
:102D10003B483A4988603B488860E002FFF7E9FD9C
:102D20000446042C19D13548006940F0100033499D
:102D3000086147F0F800304328433349891C088074
:102D4000E002FFF7D6FD0446052C06D02B480069AB
:102D500041F6EF710840294908612046F0BD274837
:102D6000C069800870472548006A704700202349E1
:102D7000096811F0200F01D0012000E00020704709
:102D800029B11E4A126902431C4B1A6104E01B4A16
:102D900012698243194B1A617047014600200129CC
:102DA00008D1164AD26912F0010F01D0012008E0C3
:102DB000002006E0114AD2680A4201D0012000E05A
:102DC000002070470D49C860704704200B49C9684E
:102DD00011F0010F01D001200EE00849C96811F07F
:102DE000040F01D0022007E00449C96811F0100F58
:102DF00001D0032000E004207047000000200240C2
:102E000023016745AB89EFCD00F8FF1F10B50446DD
:102E1000CA48844208D10121042000F0ADFB002102
:102E2000042000F0A9FB46E0C548844208D10121F6
:102E3000082000F0A1FB0021082000F09DFB3AE0F3
:102E4000C048844208D10121102000F095FB0021E8
:102E5000102000F091FB2EE0BB48844208D10121F4
:102E6000202000F089FB0021202000F085FB22E0DB
:102E7000B648844208D10121402000F07DFB0021AA
:102E8000402000F079FB16E0B148844208D10121CE
:102E9000802000F071FB0021802000F06DFB0AE033
:102EA000AC48844207D10121801500F065FB002168
:102EB000A01500F061FB10BD10B50121084600F01F
:102EC0005BFB0021012000F057FB10BD2DE9F04114
:102ED000024600250026002000230024002791F848
:102EE00003C00CF00F0591F803C01CF0100F03D0C5
:102EF00091F802C04CEA050591F800C0BCF1000F42
:102F000031D0146800202BE04FF0010C0CFA00F3D4
:102F1000B1F800C00CEA03069E4220D183004FF0B6
:102F20000F0C0CFA03F7BC4305FA03FC4CEA04044B
:102F300091F803C0BCF1280F06D14FF0010C0CFA38
:102F400000FCC2F814C00AE091F803C0BCF1480FBD
:102F500005D14FF0010C0CFA00FCC2F810C0401C67
:102F60000828D1D31460B1F800C0BCF1FF0F34DDE4
:102F7000546800202EE000F1080C4FF0010808FA18
:102F80000CF3B1F800C00CEA03069E4221D1830085
:102F90004FF00F0C0CFA03F7BC4305FA03FC4CEAA4
:102FA000040491F803C0BCF1280F05D100F1080C0E
:102FB00008FA0CF8C2F8148091F803C0BCF1480F6D
:102FC00007D100F1080C4FF0010808FA0CF8C2F81C
:102FD0001080401C0828CED35460BDE8F0814FF625
:102FE000FF710180022181700421C1707047024687
:102FF000002093680B4201D0012000E000207047C0
:103000000146886880B2704702460020D3680B42B0
:1030100001D0012000E0002070470146C86880B25E
:10302000704701617047416170470AB1016100E07A
:1030300041617047C16070474FF480320A4382613A
:103040008161826182698269704702460020424B39
:1030500018684FF68073184040EA021008433E4B50
:10306000186070473D49C8617047F0B50A460023B3
:1030700000240021002500F00046B6F1004F02D1E7
:10308000354EF16901E0344E7168C0F3034583B2F7
:1030900000F44016B6F5401F08D121F070612E4EA5
:1030A000766826F070662C4F7E6012E000F4801681
:1030B000B6F5801F06D1032606FA05F4A14341F0B8
:1030C000706106E0460D360103FA06F6B14341F0A1
:1030D000706122B1460D360103FA06F6314300F065
:1030E0000046B6F1004F02D11B4EF16101E01A4ECD
:1030F0007160F0BD30B500228B071C0F0F2303FA5F
:1031000004F2154B08338C1053F824309343124CBF
:1031100008348D1044F8253023468C1053F82430A1
:103120008C07240F00FA04F423430B4C08348D1051
:1031300044F8253030BD0A49086070470008014056
:10314000000C014000100140001401400018014033
:10315000001C01400020014000000140000020420E
:10316000DC0020420E49086070470D4948607047F6
:103170000B49886070474AF6AA20094908607047E1
:103180004CF6CC4006490860704701460020044ACE
:10319000D2680A4201D0012000E000207047000000
:1031A0000030004010B50121080700F0F2F90021BD
:1031B0004FF0805000F0EDF910BD294908627047CA
:1031C00027490861704701460020264A106820F010
:1031D000E00008431060704723490860704710B54D
:1031E000024600201F4B186820F0030010431860AF
:1031F0001E4B1B6843F004031C4C2360012901D1C2
:1032000030BF00E020BF194B1B6823F00403174CAC
:10321000236010BD1348006840F0040011490860A5
:103220000846006840F0020008601048006840F05E
:1032300004000E49086000BF00BF30BF7047014660
:103240000020084A52680A4201D0012000E0002014
:1032500070470449096841EA8001024A11607047D9
:1032600000000E4200700040A0000E4210ED00E091
:10327000DD48006840F00100DB490860084640680E
:10328000DA490840D849486008460068D8490840EB
:10329000D54908600846006820F480200860084688
:1032A000406820F4FE0048604FF41F0088607047BB
:1032B000CD49096821F48031CB4A11601146096873
:1032C00021F480211160B0F5803F03D0B0F5802F4C
:1032D0000ED106E0C449096841F48031C24A116048
:1032E00007E0C149096841F4A021BF4A116000E02C
:1032F00000BF00BF704710B5014600220023002028
:103300004A11012A02D1B84C236806E0022A02D1F0
:10331000B54C236A01E0B44C636A01F01F0201243A
:1033200094401C4201D0012000E0002010BD38B5BF
:10333000002000900024002500BF3120FFF7DBFFB4
:1033400005460098401C00900098B0F5A06F01D091
:10335000002DF2D03120FFF7CEFF08B1012400E0AC
:103360000024204638BD014600209F4A106820F006
:10337000F80040EAC100106070479E49086070473D
:1033800002460020984B586820F47C1042EA010362
:103390001843954B58607047964908667047014638
:1033A0000020914A506820F00300084350607047A5
:1033B0008D48406800F00C007047014600208A4AA2
:1033C000506820F0F000084350607047014600202C
:1033D000854A506820F4E060084350607047014619
:1033E0000020814A506820F4605040EAC1005060DB
:1033F000704729B17C4A527A02437B4B5A7204E0EF
:10340000794A527A8243784B5A7270477A490860F7
:10341000704701460020744A506820F44040084339
:10342000506070470021754A11706F4A82F8201071
:10343000012802D0042808D103E001216F4A11704D
:1034400004E005216D4A117000E000BF00BF704725
:103450006B49086070476449096A0143624A116216
:103460007047674944390860704730B50021002231
:10347000002400235C4D6D6805F00C0121B1042986
:1034800005D0082923D105E05E4D056022E05D4DA1
:1034900005601FE0544D6D6805F47012524D6D6863
:1034A00005F48034022505EB92421CB9564D554374
:1034B00005600BE04C4D6D6815F4003F03D0524D94
:1034C0005543056002E04F4D5543056002E04D4D08
:1034D000056000BF00BF444D6D6805F0F0010909AB
:1034E0004A4D6B5C0568DD4045603F4D6D6805F4F5
:1034F000E061090A454D6B5C4568DD4085603A4DE9
:103500006D6805F46051C90A404D6B5C4568DD404B
:10351000C560354D6D6805F44041890B3C4D6B5CD1
:10352000C568B5FBF3F5056130BD29B12E4A526976
:1035300002432D4B5A6104E02B4A526982432A4BC5
:103540005A61704729B1284A92690243264B9A6111
:1035500004E0254A92698243234B9A61704729B15E
:10356000214AD2690243204BDA6104E01E4AD26943
:1035700082431D4BDA61704729B11B4AD26802436E
:10358000194BDA6004E0184AD2688243164BDA60BD
:10359000704729B1144A12690243134B1A6104E0BF
:1035A000114A12698243104B1A617047144940391D
:1035B000086070470F49C86470470B49C87170476D
:1035C0000948406A40F080700749486270470146E8
:1035D0000020054A92680A4201D0012000E0002044
:1035E0007047014988727047001002400000FFF8E0
:1035F000FFFFF6FE00004242D80042422010024087
:103600008004424200127A0000093D004C00002074
:103610005C00002010B50446FE48844208D1012118
:10362000C014FFF7A9FF0021E014FFF7A5FFC4E0D5
:10363000B4F1804F08D101210846FFF7AAFF00210D
:103640000120FFF7A6FFB8E0F348844208D101212A
:103650000220FFF79EFF00210220FFF79AFFACE057
:10366000EE48844208D101210420FFF792FF002197
:103670000420FFF78EFFA0E0E948844208D1012131
:103680000820FFF786FF00210820FFF782FF94E063
:10369000E448844208D101211020FFF77AFF00217D
:1036A0001020FFF776FF88E0DF48844208D101212F
:1036B0002020FFF76EFF00212020FFF76AFF7CE04B
:1036C000DA48844208D101214014FFF755FF002158
:1036D0006014FFF751FF70E0D548844209D1012101
:1036E000C804FFF749FF00214FF40020FFF744FF13
:1036F00063E0D048844209D101210805FFF73CFF6F
:1037000000214FF48010FFF737FF56E0CA4884428B
:1037100009D101214805FFF72FFF00214FF40010C8
:10372000FFF72AFF49E0C548844208D10121402023
:10373000FFF72FFF00214020FFF72BFF3DE0C0489F
:10374000844208D101218020FFF723FF002180203F
:10375000FFF71FFF31E0BB48844208D101218015EB
:10376000FFF717FF0021A015FFF713FF25E0B6486C
:10377000844209D101210804FFF7FEFE00214FF425
:103780008030FFF7F9FE18E0B048844209D10121EA
:103790004804FFF7F1FE00214FF40030FFF7ECFE84
:1037A0000BE0AB48844208D101218804FFF7E4FE16
:1037B00000214FF48020FFF7DFFE10BD00220288B9
:1037C000944B98420ED0994B98420BD0B0F1804F59
:1037D00008D0914B984205D0904B984202D0904B24
:1037E000984204D14FF68F731A404B881A438D4B81
:1037F000984207D08C4B984204D04FF6FF431A40B2
:10380000CB881A4302808B8883850B880385814B84
:1038100098420BD0854B984208D08B4B984205D0EC
:103820008A4B984202D08A4B984201D10B7A038688
:1038300001238382704770B5002400220023058C89
:103840004FF6FE7635400584028C8388048B4FF654
:103850008F752C40B51E2C400D882C43751E2A40B8
:103860000D892A434D882A436A4DA8420BD06F4DDB
:10387000A84208D0744DA84205D0744DA84202D089
:10388000734DA84213D14FF6F7752A404D892A434C
:103890004FF6FB752A408D882A434FF6FF652B4073
:1038A0004FF6FF552B408D892B43CD892B438380C9
:1038B0000483CD888586028470BD70B50024002203
:1038C0000023058C4FF6EF7635400584028C838803
:1038D000048B48F6FF752C404FF6FF452C400D88B1
:1038E0004FF6FF7606EA05252C434FF6DF752A4092
:1038F0000D8906EA05152A434D8806EA05152A436F
:10390000444DA84202D0494DA8421DD14FF67F75C3
:103910002A404D894FF6FF7606EA05152A434FF6F1
:10392000BF752A408D8806EA05152A434FF6FF35F4
:103930002B404FF2FF752B408D8906EA85052B43FE
:10394000CD8906EA85052B4383800483CD880587CE
:10395000028470BD70B5002400220023058C4FF650
:10396000FF6635400584028C8388848B4FF68F7503
:103970002C404FF6FC752C400D882C434FF6FF551C
:103980002A400D894FF6FF7606EA05252A434D8821
:1039900006EA05252A431F4DA84202D0234DA8421E
:1039A0001DD14FF2FF752A404D894FF6FF7606EA8A
:1039B00005252A434FF6FF352A408D8806EA05255E
:1039C0002A434EF6FF752B404DF6FF752B408D892F
:1039D00006EA05152B43CD8906EA05152B4383809E
:1039E0008483CD888587028470BD70B50022002352
:1039F0000024058C4EF6FF7635400584038C8488C0
:103A0000828B48F6FF752A404FF6FF452A400D8805
:103A100020E00000002C01400004004000080040AD
:103A2000000C004000100040001400400034014031
:103A3000004C01400050014000540140001800407B
:103A4000001C0040002000400040014000440140B4
:103A5000004801404FF6FF7606EA05252A434DF659
:103A6000FF752B400D8906EA05352B434D8806EA84
:103A700005352B43FA4DA84202D0FA4DA84208D191
:103A80004BF6FF752C408D894FF6FF7606EA8515BB
:103A90002C4384808283CD88A0F84050038470BD7D
:103AA000828B4FF2FF331A408283828B4FF6FF7373
:103AB00003EA01231A4382837047F0B50C4615468A
:103AC000002200210026078C4EF6FF7C07EA0C0737
:103AD0000784828B018C4FF6FF7707EA043640F6A5
:103AE000FF473A404FF6FF7707EA05273A434FF67C
:103AF000FF7707EA03373A43D94FB8420ED0D94F80
:103B0000B8420BD0B0F1804F08D0D74FB84205D0A3
:103B1000D64FB84202D0D64FB84206D14DF6FF7705
:103B2000394046F48057394305E047F6FF5739409E
:103B300044F48057394382830184F0BD828B4FF671
:103B4000F3731A408283828B0A4382837047F0B5F5
:103B50000C461546002200210026078C4FF6FF6C0C
:103B600007EA0C070784828B018C4FF6FF7707EA80
:103B700004264FF60C773A404FF6FF7707EA031713
:103B80002F433A43B64FB8420ED0B64FB8420BD08F
:103B9000B0F1804F08D0B44FB84205D0B34FB8420F
:103BA00002D0B34FB84206D14FF6FF57394046F422
:103BB0008077394305E04FF2FF57394044F480776E
:103BC000394382830184F0BD028B4FF2FF331A40E8
:103BD0000283028B4FF6FF7303EA01231A43028329
:103BE0007047F0B50C461546002200210026078CD0
:103BF0004FF6EF7C07EA0C070784028B018C4FF627
:103C0000FF7707EA041640F6FF473A404FF6FF7782
:103C100007EA03373A434FF6FF7707EA05273A43A7
:103C20008F4FB8420ED08F4FB8420BD0B0F1804FBB
:103C300008D08D4FB84205D08C4FB84202D08C4F7F
:103C4000B84206D14FF6DF77394046F010073943C6
:103C500005E04FF65F77394044F01007394302839F
:103C60000184F0BD028B4FF6F3731A400283028B7E
:103C70000A4302837047F0B50C4615460022002126
:103C8000068C4FF6FE773E400684028B018C4FF681
:103C90000C7632407E1C06EA03162E433243704EE9
:103CA000B0420ED06F4EB0420BD0B0F1804F08D072
:103CB0006D4EB04205D06D4EB04202D06C4EB04257
:103CC00006D14FF6FD76314044F00106314305E060
:103CD0004FF6F576314044F001063143028301840A
:103CE000F0BD70B505460C465D4885420ED05D4876
:103CF00085420BD0B5F1804F08D05B48854205D096
:103D00005A48854202D05A48854200D100E000BF9F
:103D1000208850B92389A28861882846FFF7ABFF25
:103D2000E1882846FFF79EFF25E0208804280AD175
:103D30002389A28861882846FFF753FFE188284637
:103D4000FFF742FF17E0208808280AD12389A288BC
:103D500061882846FFF7FBFEE1882846FFF7EEFE64
:103D600009E02389A28861882846FFF7A6FEE1883A
:103D70002846FFF795FE70BD2DE9F04105460C463B
:103D800000260127608808B9022600E00026A088E6
:103D9000012801D1022700E001272088A0B923894A
:103DA000A28861882846FFF766FFE1882846FFF76A
:103DB00059FF23893A4631462846FFF712FFE1882A
:103DC0002846FFF701FF13E02389A288618828466F
:103DD000FFF707FFE1882846FFF7F6FE23893A46FA
:103DE00031462846FFF747FFE1882846FFF73AFFAC
:103DF000BDE8F0810A884B881A438B881A43CB8828
:103E00001A430B891A434B891A438B891A43A0F82A
:103E1000442070474FF6FF71818000210180C180EE
:103E20004180017270470021018041808180C18002
:103E3000018141818181C1817047002101804180E0
:103E4000012181800021C180018170470021018012
:103E500041808180C1800181418181817047000062
:103E6000002C0140003401400004004000080040E4
:103E7000000C004021B1028842F00102028004E0FF
:103E800002884FF6FE731A400280704731B1B0F8D5
:103E9000442042F40042A0F8442005E0B0F8442059
:103EA000C2F30E02A0F8442070471AB183890B4375
:103EB000838102E083898B438381704781827047CD
:103EC00041EA0203A0F8483070471AB183890B43D6
:103ED000838102E083898B438381704701894FF698
:103EE000F8721140018170470A46002101894FF69E
:103EF0008F73194011430181704730B504460D4658
:103F000029462046FFF7F0FF208940F00700208176
:103F100030BD2DE9F04104460D4616461F46602D82
:103F200006D13B46012231462046FFF75AFE05E006
:103F30003B46012231462046FFF79DFE294620469A
:103F4000FFF7D2FF208940F007002081BDE8F08113
:103F500030B50C4600210189C9B24FF6FF7505EA5C
:103F60000325154325432943018130BD2DE9F04147
:103F700005460E4617469846002443463A463146C3
:103F80002846FFF7E5FF2C894FF6F870044044F00F
:103F900007044FF68F70044044F070042C81BDE894
:103FA000F081F0B504460D4616461F463B463246A4
:103FB00029462046FFF7CCFF208940F4804020812D
:103FC000F0BD0185828270470A46002101884FF6C4
:103FD0008F731940114301807047F0B50C461546A8
:103FE0001E460021002200230189028B038C4FF61C
:103FF000F877394021434FF6FC473A4040F2011729
:104000003A434FF6DD773B404FF6FF7707EA061756
:104010002F433B43018102830384F0BD0A46002104
:10402000018B4FF68F7319401143018370470A4685
:104030000021018B48F6FF7319404FF6FF7303EA26
:1040400002231943018370470A460021818B4FF6F2
:104050008F7319401143818370470A460021818B79
:1040600048F6FF7319404FF6FF7303EA0223194322
:104070008183704721B1028842F08002028004E00F
:1040800002884FF67F731A400280704721B1828800
:1040900042F00402828004E082884FF6FB731A40EB
:1040A0008280704721B1828842F00802828004E059
:1040B00082884FF6F7731A408280704721B1828858
:1040C00042F00102828004E082884FF6FE731A40BB
:1040D000828070470A460021018B4FF6F773194022
:1040E0001143018370470A460021018B4FF2FF7391
:1040F00019404FF6FF7303EA022319430183704707
:104100000A460021818B4FF6F773194011438183D2
:1041100070470A460021818B4FF2FF7319404FF61A
:10412000FF7303EA02231943818370470A46002183
:10413000018B4FF6FB7319401143018370470A4608
:104140000021018B4FF6FF3319404FF6FF7303EA4E
:1041500002231943018370470A460021818B4FF6E1
:10416000FB7319401143818370470A460021818BFC
:104170004FF6FF3319404FF6FF7303EA022319434A
:10418000818370470A460021018B4FF67F731940E7
:104190001143018370470A460021018BC1F30E01D0
:1041A0004FF6FF7303EA02231943018370470A465F
:1041B0000021818B4FF67F73194011438183704733
:1041C0000A460021818BC1F30E014FF6FF7303EA0B
:1041D00002231943818370470A460021018C4FF660
:1041E000FD7319401143018470470A460021018C78
:1041F0004FF6F77319401143018470470A460021B6
:10420000018C4FF6DF7319404FF6FF7303EA021378
:104210001943018470470A460021018C4FF67F73D1
:1042200019404FF6FF7303EA0213194301847047E4
:104230000A460021018C4FF6FF5319404FF6FF73D9
:1042400003EA02231943018470470A460021018CC6
:104250004FF2FF7319404FF6FF7303EA022319432D
:10426000018470470A460021018C4DF6FF73194006
:104270004FF6FF7303EA023319430184704730B5E8
:10428000002301248C40A3B2048C9C430484048C3E
:1042900002FA01F5ADB22C43048430BD30B50023E1
:1042A00004248C40A3B2048C9C430484048C02FA42
:1042B00001F5ADB22C43048430BD70B50346002037
:1042C00000241846183001258D40ACB21D8CA54342
:1042D0001D8409B1082909D100EB6100056825F0AA
:1042E000700505600568154305600EE00D1FC5F3F8
:1042F0004E052844056825F4E045056005684FF63D
:10430000FF7606EA02263543056070BD21B10288BA
:1043100042F00202028004E002884FF6FD731A4068
:104320000280704721B1028842F00402028004E05A
:1043300002884FF6FB731A400280704721B18288D1
:1043400042F08002828004E082884FF67F731A4038
:104350008280704702884FF6F7731A400280028805
:104360000A430280704782884FF68F731A4082801A
:1043700082880A438280704702894FF6F8731A4098
:10438000028102890A430281704702894FF67F73D6
:104390001A40028102890A43028170478184704772
:1043A0008185704781867047018770478187704794
:1043B000A0F84010704702884FF6FF431A40028071
:1043C00002880A43028070470146888E7047014682
:1043D000088F70470146888F70470146B1F840004A
:1043E00070470146888C70470146088D7047024629
:1043F0000020138A0B4201D0012000E0002070470A
:10440000CA430282704730B50246002000230024D0
:10441000158A05EA0103958905EA010413B10CB177
:10442000012000E0002030BDCA4302827047000036
:10443000F0B50446059D661EFE4F57F82600C66976
:10444000FD4F3E40C6615E1EB607B709561E06F018
:10445000070647EA06574E1E06F00F0647EA0646CD
:104460006F1EC7F309073E43C7693E43C661F0BDEF
:10447000F8B506460C46F14884420AD88000B0FBE5
:10448000F4F5042305220C2130460095FFF7D0FFF8
:104490000FE0EB4884420AD88000B0FBF4F5032318
:1044A0001A46052130460095FFF7C2FF01E00320C0
:1044B000F8BD0020FCE710B50446E248C06940F0B2
:1044C0000070E049C8610846806940F001008861D9
:1044D000DD48406820F4C040DB4948600846406839
:1044E0004860D848806940F00400D6498861D748C0
:1044F000006820F47040D54908600846006840F420
:10450000004008600846006820F4702008600846F3
:10451000006840F430200860CD48017801704FF009
:10452000130000F0EEFACB48007840F01001C948C3
:1045300001704FF0140000F0E4FA002010BD70B5D7
:1045400004460E46601EBB4951F8205001202860E9
:104550000320686131462046FFF78AFF08B1032037
:1045600070BD0020FCE70246501EB24B53F82010ED
:10457000086820F00100086000BF486810F0010FD3
:10458000FBD10020704710B502460B46501EA94CC7
:1045900054F82010C86920F04040C861C869C8615B
:1045A000002010BD70B50446601EA24951F820508D
:1045B000611EA94A02EBC1000021DFF8A0C200DFA2
:1045C00001280CD0A86810F0806F01D0002070BDC9
:1045D000611EA14A02EBC100DFF884C200DF0420A3
:1045E000F5E730B503460A46581E924C54F82010A1
:1045F0000020C1F88001907B38B9D1F8800114887F
:1046000040EA4450C1F8800108E0D1F88001042557
:10461000146805EBC4042043C1F88001D07B012855
:1046200005D1D1F8800140F00200C1F88001D079B5
:104630000406907944EA0044507944EA0020147951
:1046400020434FF4C4746050D07A0406907A44EA50
:104650000044507A44EA0020147A20434FF4C67490
:1046600060504FF4C270405820F00F044FF4C270F5
:1046700044504058147B04F00F0420434FF4C2749C
:104680006050486940F001004861D1F8800140F075
:104690000100C1F88001002030BD30B503465C1E2A
:1046A000644D55F82400D0F8B04114F0040F09D13E
:1046B00000249473D0F8B04140F2FF7505EA5454D9
:1046C000146008E001249473D0F8B0416FF06045A5
:1046D00005EAD4041460D0F8B04114F0020F02D1FE
:1046E0000024D47301E00124D4734FF4DA74245805
:1046F00004F00F0414734FF4DC74245814714FF455
:10470000DC742458250A55714FF4DC742458250CA8
:1047100095714FF4DC742458240ED4714FF4DE7478
:10472000245814724FF4DE742458250A55724FF43D
:10473000DE742458250C95724FF4DE742458240E30
:10474000D47230BD02460120704730B5044613468E
:1047500038480268D2F81C0201258D40284201D158
:10476000012030BDD2F80C0201258D4028421FD116
:1047700013F0010F1CD102F5107050F83100000C3D
:10478000000401D10120ECE702F5107000EBC1003C
:1047900040680004000C01D10120E2E702F510702E
:1047A00000EBC1004068000C000412D10120D8E7E2
:1047B000D2F80C520120884005420AD013F0010FB4
:1047C00007D002F5107000EBC100406808B9012065
:1047D000C7E70020C5E7F0B50446164E3068D0F8AC
:1047E000006246F00106C0F80062D0F81C620127A2
:1047F0008F403E4262D113F0010F33D1D0F80462F2
:1048000001278F403E43C0F80462D0F80C620127B4
:104810008F40BE43C0F80C62560103F0020746EA1F
:10482000C70700F5107646F83170002706EBC10681
:10483000776035E06000002000FC80FC20A10700CC
:1048400040420F00001002400000014004080140F7
:1048500004E400E005E400E0E823002089570008B4
:1048600051570008D0F8046201278F403E43C0F83A
:104870000462D0F80C6201278F403E43C0F80C62FE
:10488000042606EBC20603F002073E4300F510774C
:1048900047F83160002700F5107606EBC106776017
:1048A000012C05D19D4E3688761C9C4F3E806CE0D5
:1048B0009B4E3688761C9A4F3E8066E0D0F80C629C
:1048C00001278F403E4246D113F0010F43D100F53E
:1048D000107656F83160360C36040FD1560103F0CD
:1048E000020746EAC70700F5107656F8316046EA37
:1048F000074700F5107646F8317046E000F510766F
:1049000006EBC10676683604360C0AD1560103F070
:10491000020746EAC70700F5107606EBC106776086
:1049200033E000F5107606EBC1067668360C3604E7
:104930002BD1560103F0020746EAC70700F51076AF
:1049400006EBC106766846EA074700F5107606EBE7
:10495000C106776019E0D0F80C6201278F403E4213
:1049600013D013F0010F10D000F5107606EBC1063E
:10497000766856B9042606EBC20603F002073E43EA
:1049800000F5107707EBC1077E60D0F814620127AD
:104990008F40BE43C0F81462D0F81C7201268E40CE
:1049A0003743C0F81C725E4E36880EB90D2604E0FF
:1049B0005B4E3688761EC6F10D0635462E02C0F8CF
:1049C0000062F0BD2DE9F0470646894690461F4635
:1049D00000240025012E02D0022E3FD11FE05048B6
:1049E000008808B90D2003E04D480088C0F10C0094
:1049F00085B200240FE03A4621463046FFF7A5FE77
:104A0000012806D13B46424621463046FFF7E3FEE9
:104A100003E0601C84B2AC42EDDB00BF1EE03F4807
:104A2000008808B9002002E03C480088401E85B29A
:104A30000D240FE03A4621463046FFF786FE012856
:104A400006D13B46424621463046FFF7C4FE03E00E
:104A5000601E84B2AC42EDDC00BF00BF00BFAC42C0
:104A600002D00020BDE8F0870520FBE703460120C7
:104A7000704708B52B48006810F0010F1ED0294878
:104A8000006840F00100274908606946264800F0A8
:104A900019FA40B101200099FFF7A3FD23480099BE
:104AA000FBF752FB0AE0224800F03DFA1D480C30AB
:104AB000006820F001001B490C31086008BD10B5EA
:104AC0001848001D006810F0030F19D0194800F0B5
:104AD00013FC68B11548FBF727FB044644B1224696
:104AE00000210120FFF7D9FD2146124800F014FAF9
:104AF0000C48001D006840F020000A49091D0860AC
:104B000010BD00F01F020121914042094FF0E02347
:104B100003EB8202C2F8001170470000640000201D
:104B20006600002008640040682200205C1D002010
:104B3000E8230020282300202DE9F04106460F46F7
:104B4000751E8F4901EBC5000121DFF838C200DF77
:104B50008D48007868B901208B490870102240F216
:104B60000C518A4800F047F9012802D10220BDE823
:104B7000F08105EB4501864A02EB41106021DFF828
:104B800014C200DF05EB4501834A02EB41106021AE
:104B9000DFF800C200DF3046DFF800C200DF044665
:104BA0000CB12046E3E739463046FFF7C8FCDEE7A4
:104BB00010B504462046FFF7D6FC10BDF8B50546F3
:104BC0000E4617466C1E2846FFF7ECFC20B931460E
:104BD0002846FFF706FD4EE06C48FBF7A5FA00906B
:104BE0000098002845D0009896E80E10A0E80E1016
:104BF00004EB4401664A02EB41103A46DFF8A0C1DB
:104C0000009900DF012809D160480099FBF79CFA60
:104C1000012801D10720F8BD0820FCE72846FFF74E
:104C2000C1FC28BB04EB4401594A02EB41100022AD
:104C30006946DFF870C100DF012807D1504901EB58
:104C4000C400DFF864C100DF0020E4E74F480099AA
:104C5000FBF77AFA012807D1494901EBC400DFF8D4
:104C600048C100DF0720D6E731462846FFF7B9FCE8
:104C700001E00620CFE70020CDE770B505460C46E1
:104C800016460020E073324621462846FFF796FF7D
:104C900070BD70B505460C4616460120E0733246DD
:104CA00021462846FFF78AFF70BD2DE9F0410646F0
:104CB0000F461446254600BF3046FFF773FC70B917
:104CC00039463046FFF73EFD8046711E2C4A02EB06
:104CD000C100DFF8D4C000DF4046BDE8F081A4F594
:104CE0007F40FF3800D16D1C6D1E0120DFF8BCC075
:104CF00000DF002DE0DA0820EFE7F8B504460D46A6
:104D00001646671E07EB4701234A02EB4110324665
:104D10006946DFF890C000DF012801D10820F8BD06
:104D2000009B0FCB85E80F0018480099FBF70CFAA1
:104D3000012801D10720F2E70020F0E770B5044612
:104D40000D461646324629462046FFF7D6FF70BD6F
:104D50002DE9F04104460D4616461F463B463246B5
:104D600029462046FFF72EFEBDE8F08170B50446C7
:104D70000D461646324629462046FFF777FE70BD9F
:104D8000E823002011570008680000205C1D002067
:104D9000682200200153000828230020B74400089F
:104DA000DD5300087D54000851570008B550000835
:104DB000064C074D06E0E06840F0010394E8070068
:104DC00098471034AC42F6D3FBF794F99C5B00088B
:104DD000BC5B00080000000002E008C8121F08C108
:104DE000002AFAD170477047002001E001C1121F6C
:104DF000002AFBD1704710B5002A06DA22F00042E3
:104E0000D21D22F00703102203E0D21C22F003037C
:104E10000C2213B19C188C4201D9012010BD024410
:104E200001448360C0E90021C91AD018884202D821
:104E300010600246F9E70020106010BD08480068C5
:104E4000C0010BD507480068C00707D00548803867
:104E50000068002802DA0449012008707047000049
:104E6000FCED00E0800E00E0780000204FF0604292
:104E7000D36F002BFCD0C36AD367D36F002BFCD059
:104E8000C07840EA0120A2F87C0070474FF06041F2
:104E9000CA6F002AFCD081F87C0070470A460146A0
:104EA000074810B500EB820050F8040C002805D02C
:104EB00000F08CFBBDE8104000F078BB10BD000096
:104EC000AC1B002010B504468089002823D06089DF
:104ED00004EB8000006908606078012807D1022097
:104EE00060700021204600F071FB00F05FFB04F1D0
:104EF0000C0000BFD0E85F1F491EC0E8521F002A07
:104F0000F8D16089401C80B26081E189884201D17A
:104F100000206081042010BD10B500F057FBBDE8F3
:104F2000104000F043BB10B5002100F04FFBBDE87E
:104F3000104000F03BBB0000074801684FF0E02044
:104F4000416100218161072101610448016841F04C
:104F50007F41016040177047405B000820ED00E092
:104F6000704750E8001F31B10B6840E80032002A5A
:104F7000F7D108467047BFF32F8FFAE770B50D469B
:104F8000002812D04FF6FF71084C884204D22268E4
:104F90000146104600F046FB20684570044800F0CA
:104FA0001FF9BDE8704000F01FBC70BD6C00002010
:104FB000282400200F4810B50D4942680E480B68A0
:104FC0000068934204D00A60CB88421E1A448A804B
:104FD0008A8880B282420AD100200860054800F029
:104FE000FFF80146BDE81040024800F03FBB10BD8D
:104FF00084000020282400207400002070B51A4D81
:10500000E86800282ED0A88A401EA882002623E047
:10501000A06838B161684160606810B1A1688160C2
:105020006660A66010482146183800F01FFBA08A71
:10503000A8826078042804D10C49E08A09880844D1
:10504000A0820120607084F82000E068E860E068D9
:1050500008B10561E6602661A88A002802D1EC68E3
:10506000002CD5D170BD0000402400207400002029
:1050700070B504000FD00D4DA17801262868827804
:1050800091420CD900F00EFB286846702046BDE81E
:10509000704000F0A9BB064800F0A2F8F7E7667080
:1050A0002146BDE87040024800F0E0BA6C000020E4
:1050B000282400200321FFF761BF0000054A02EB0E
:1050C000810151F8041C002902D00A8B82430A8313
:1050D00070470000AC1B002010B50446008B08434D
:1050E00020836278618B062A16D0052A17D10842E0
:1050F00015D001EA0002628388432083204600F035
:10510000DBFA01206070022084F820002146BDE80F
:105110001040034800F0AABA31EA0002ECD010BDFA
:1051200028240020024670B5154800EB810050F895
:10513000044C002C22D0208B104320836178658B97
:10514000062918D0052919D1284217D005EA0001EF
:105150006183A8432083204600F0AEFA208BA84349
:10516000208301206070022084F820002046BDE8E2
:105170007040FFF77DBF35EA0001EAD070BD000046
:10518000AC1B002070B503460C480D460468208B0C
:1051900042B133EA000101D0062109E0984320839F
:1051A000022070BD10EA030101D06183F6E70521FA
:1051B00063832846FFF7E2FE012070BD6C000020EB
:1051C000814202D342688A4201D80120704750E8E8
:1051D000002F0A6040E80012002AF8D10020704732
:1051E0000146406842684A600B780022022B05D0D5
:1051F000012B03D0032B01D04260704743680BB1F1
:10520000996042608260704770B504460020154680
:10521000207001226270A1706060A060E060206177
:10522000A082E0822083608384F8200084F821003B
:10523000608C18B90448FFF794FEA0622946204606
:10524000BDE8704000F00EB8A8030020034800211C
:10525000016003490988C180704700008400002074
:105260003C5B000810B5428C920803D10F4A1288AB
:10527000C2F38D02836A03EB8202530700D5121F2B
:10528000403A4FF08073C2E90E1300234FEA030443
:1052900042F823405B1C0E2BFAD3C36913624262AF
:1052A000C162806A0249016010BD0000385B0008DD
:1052B000A52E5AE20349044A0968C882128810449C
:1052C000888270476C000020740000200848016844
:1052D00008488A8A0088CB8AA2EB00001A4480B270
:1052E0008A82010402D40421FFF748BE70470000FF
:1052F0006C00002074000020C1898089081A704762
:105300000122027000224270426002814281103903
:105310008281C1F38F01C181704700002DE9F04106
:105320000F4604464168002004F10C0621B1617863
:1053300002291AD0A189A9B3A189E289914246D252
:10534000218904EB81010F61D6E85F1F491CC6E883
:10535000521F002AF8D12189491C89B22181E28992
:10536000914200D12081BDE8F0810746607020465F
:10537000FFF736FF80F820702189054604EB810194
:10538000C0690861D6E85F0F401CC6E8510F0029CC
:10539000F8D12089401C80B22081E18988420BD15C
:1053A000278109E0FFE72046FFF71AFF0546C0699D
:1053B0000421076085F8201001206870284600F05D
:1053C0007BF92946BDE8F041034800F04FB9BDE83C
:1053D000F0410320FAF75CBF282400202DE9F041BA
:1053E00017460C468189244D4268002602B149B116
:1053F000C389994228D1BFB11F490968BAB100F0E9
:1054000035F91AE0FFF7ECFE0746C0690460042096
:1054100087F82000384600F04FF93846FFF728FE9D
:10542000286880F8206024E00120BDE8F081416018
:105430002968C1E901600121417028680821C4611F
:105440003846FFF79BFDEFE7018900EB81010C6116
:1054500000F10C01D1E85F2F521CC1E8532F002B43
:10546000F8D10189491C89B20181C289914200D1D8
:1054700006810020D9E700006C0000202DE9F041F2
:10548000044680892A4F90460E460025B0B36089B5
:1054900004EB8000006908606089401C80B2608174
:1054A000E189884200D165816068E0B12046FFF75C
:1054B00097FE80F820502189064604EB8101C069DF
:1054C00008612089401C80B22081E189884200D196
:1054D0002581304600F0F0F83046FFF7C9FD386806
:1054E00080F8205007E00C34D4E85F0F401EC4E879
:1054F000510F0029F8D10020BDE8F081FFE7B8F195
:10550000000F07D00A496068096828B1204600F0FA
:10551000ADF805E00120EFE761603868C0E90154AB
:1055200008214046FFF72AFD3868C661F2E700000F
:105530006C00002070B51A4801210068417000F02D
:10554000B1F8184D6C7816E005EBC4014868027894
:10555000E2B1012A1FD000F0E1F8E878641C84422F
:1055600000D100240F48801CD0E84F1F491EC0E81E
:10557000421F002AF8D1A8780028E5D16C700A48AB
:10558000FFF72EFEBDE8704000F02EB9098989B200
:10559000FFF7A2FDE1E78968FFF7C0FEDDE7000045
:1055A0006C000020281B00202824002005480178DA
:1055B00011B101214170704703494FF080500860DC
:1055C000704700007C00002004ED00E0F0B4144AB5
:1055D000941CD5784FEA0206D4E84F3FAB4202D183
:1055E000BFF32F8F0EE05B1CC4E8473F002FF3D1C1
:1055F000D6E84F3F5C1CAC4200D10024C6E8474FC0
:10560000002FF5D1D4789C4205D902EBC302C2E940
:105610000101F0BC7047F0BC0220FAF739BE00006F
:10562000281B0020104A10B5D368ABB113469B8AE3
:1056300003E08CB12246A48A2344D4688B42F8D379
:10564000C460D0600261C46804B12061591A8182CB
:10565000908A401A908210BD0024C460D060C91A9C
:1056600002619182848210BD4024002030B502780E
:105670000023022A03D0012A01D0032A00D10123EA
:105680008C7800E01046426812B19578A542F9D2B4
:105690004A6041601BB102B19160886030BD00205A
:1056A000FBE7000003494A684260002282604860CC
:1056B000704700002824002010B5016900290ED091
:1056C000C268CA60C36800223BB18B8A848A2344C3
:1056D0008B82C3681961C26000E08A82026110BDDA
:1056E000816839B142684A604168002901D0806808
:1056F00088607047054906E04A68824202D14068E6
:105700004860704711460029F6D1704728240020D0
:1057100002220270002242604180704710B5416849
:1057200079B1FFF75DFD0446FFF7C6FF0120607009
:10573000032084F820002146BDE810400348FFF70D
:1057400095BF4188491C418010BD000028240020DD
:1057500010B5416889B1FFF743FD0446032084F882
:1057600020002046FFF7A8FF2046FFF781FC0549EF
:105770000020096881F8200002E04188491C41802E
:10578000002010BD6C00002010B542880C461AB1F4
:10579000521E4280002010BD34B1094A436811688E
:1057A00023B1FFF763FF06E0012010BD41601168DF
:1057B0000023C1E9013007212046FFF7DFFBF3E7B3
:1057C0006C00002006480068D0E90910814203D32C
:1057D00000680449884202D00120FAF759BD704799
:1057E0006C000020A52E5AE2074902224860427050
:1057F000064A1278002A05D006C98A4202D0C0782B
:10580000FFF744BB704700006C00002078000020C8
:105810002DE9F047164688468146FFF70FFB00202A
:1058200004463E4A3E4902E042F82040401C0B88B4
:105830009842F9D33B48302201883B48FFF7DBFA16
:105840003A48008880B240F000423948016839483F
:10585000FFF7D1FA38480822018838480068FFF776
:10586000CAFA374FFF25374AFD707C84002138463D
:10587000FFF7CAFC344804210170446033480170CA
:10588000C46004618482786A2030FAF739FC3048B9
:1058900031490760022078702E48047044700978FE
:1058A000C170FFF7D3FC2D48016841F47F0101600E
:1058B0000068290601EA00202849C0431439B0FADB
:1058C00080F00968C0F10800C1F30221814200DBC9
:1058D000481C2249091F0B686FF08072824063F3F5
:1058E00017020A60FFF728FB1D49002808600CDB3F
:1058F0001C49455400F01F020121914040114FF016
:10590000E02202EB8000C0F80011324641464846D2
:10591000BDE8F047002300F065B80000AC1B002094
:10592000345B0008505B000898000020385B0008DA
:10593000545B0008A80300205A5B00080000002008
:10594000F8230020790200082824002040240020A9
:105950006C000020281B0020585B000820ED00E0B0
:105960008000002000E400E00B4810B50068012131
:105970004170FFF797FEFFF71DFB08480168491CBF
:105980000160FFF73BFB00F00DF80548FFF728FC2E
:10599000BDE81040FFF728BF6C0000207400002015
:1059A0002824002070B50D4C2068002815D0A08850
:1059B0000B4E401EA0800AE0E888FAF75FFCA8883A
:1059C000A0802868206029463068FFF7F9FBA0888E
:1059D000002802D12568002DEED170BD8C0000207A
:1059E000000000202DE9F0411E46174680460C4677
:1059F00011F0FF0F00D14C1C1A48FFF7B2FA050056
:105A00002DD0C4F30F20AF626884E1B2424628462D
:105A1000EE61FFF7F9FB01241348144906E000BFCB
:105A200000EB840252F8042C22B1641C0A889442D0
:105A3000F6D9002400EB8400E6B240F8045C0C4880
:105A4000EE70007818B101212846FFF70FFA2846BA
:105A5000FFF70EFB0748006880F820602046BDE88D
:105A6000F081000098000020AC1B0020345B00088F
:105A7000780000206C0000202DE9F041284C274FD1
:105A8000284E2168002510B1CA78824220D14D707D
:105A9000FAF739FB21684862FFF794FE2068C17865
:105AA00006EB810141F8045C816A1F48FFF788FB1F
:105AB00020688562397811B10021FFF7D7F91B48BA
:105AC0002168FFF77DFB00202560FFF7D1FA1FE07A
:105AD0001749098888421ED806EB800656F8044C00
